:020000040800F2
:10000000680600206D0100087501000877010008EE
:10001000790100087B0100087D0100080000000054
:100020000000000000000000000000007F01000848
:10003000810100080000000083010008F1020008AF
:100040008701000887010008870100088701000870
:100050008701000887010008870100088701000860
:100060008701000887010008870100088701000850
:100070008701000887010008870100088701000840
:100080008701000887010008870100088701000830
:100090008701000887010008870100088701000820
:1000A0008701000887010008870100088701000810
:1000B0008701000887010008870100088701000800
:1000C00087010008870100088701000887010008F0
:1000D00087010008870100088701000887010008E0
:1000E00087010008870100088701000800F002F876
:1000F00000F02CF80AA090E8000C82448344AAF196
:100100000107DA4501D100F021F8AFF2090EBAE893
:100110000F0013F0010F18BFFB1A43F0010318473B
:100120007C0C00008C0C000000230024002500261D
:10013000103A28BF78C1FBD8520728BF30C148BF4A
:100140000B6070471FB51FBD10B510BD00F031F832
:100150001146FFF7F7FF00F0B5F900F04FF803B4D0
:10016000FFF7F2FF03BC00F057F800000948804792
:1001700009480047FEE7FEE7FEE7FEE7FEE7FEE789
:10018000FEE7FEE7FEE7FEE704480549054A064BA1
:100190007047000001030008ED000008680000201F
:1001A000680600206802002068020020704770473F
:1001B0007047754600F02CF8AE4605006946534678
:1001C00020F00700854618B020B5FFF7DDFFBDE839
:1001D00020404FF000064FF000074FF000084FF0AE
:1001E000000BAC46ACE8C009ACE8C009ACE8C009FB
:1001F000ACE8C00921F007018D46704710B50446F0
:10020000AFF300802046BDE81040FFF7A8BF000014
:10021000004870470000002001491820ABBEFEE7EF
:10022000260002007047000080B500F001F880BD94
:1002300082B041F204000021C4F202000191009159
:1002400050F8041C41F4803140F8041C50F8041CA0
:1002500001F400310091019901310191009919B91E
:100260000199B1F5A06FF1D150F8041C890354BF76
:100270000021012100910099012936D142F20001AB
:10028000C4F202010A6842F010020A600A6822F011
:1002900007020A600A6842F002020A60016801600F
:1002A00001680160016841F480610160016821F426
:1002B0007C110160016841F4E811016050F8041CF0
:1002C00041F0807140F8041C50F8041C8901FBD5F2
:1002D000016821F003010160016841F00201016041
:1002E000016801F00C010829FAD102B07047000042
:1002F00040F26000C2F20000016801310160704705
:1003000080B541F20000C4F202000168002241F011
:10031000010101604168CFF6FF02114041600168B0
:100320004FF6FF72CFF6F66211400160016821F4CA
:1003300080210160416821F4FE0141604FF41F01FA
:100340008160FFF771FF4EF60850CEF200004FF0CB
:100350000061016080BD00004FF61841CFF6FF71CB
:1003600010F57A7FC8BF0146B1F57A7FA8BF4FF478
:100370007A7108467047000041F20400C4F202009E
:10038000016801F00C01082939D050F8041C41F42F
:10039000803140F8041C00BF50F8041C8903FBD5D1
:1003A00042F20001C4F202010A6842F0120222F095
:1003B00005020A60016821F470110160016841F4CE
:1003C000E0110160016841F480310160016841F48D
:1003D0008061016050F8041C41F0807140F8041CF9
:1003E00050F8041C8901FBD50168022262F3010167
:1003F000016000BF016801F00C010829FAD14EF23A
:10040000100041F63F11CEF20000C0F20101416040
:1004100000218160072101607047000010B500F0E5
:10042000E3F8044600F0E0F8001BB0F57A7FF9D35A
:1004300010BD0000B0B540F23445C4F200050C46D2
:100440000346012002212A4600F03AF92A1D4FF402
:1004500080604FF40061234600F032F9B0BD000027
:1004600041F21800C4F202000168BB2241F00C0105
:100470000160416841F00201416040F60000C4F2B1
:100480000100016862F31F610160D0F800144FF6AB
:100490000072CFF60F72114041F4401141F0330168
:1004A000C0F8001440F60440C4F20100016848F6A8
:1004B0003302C0F2080262F31B2101604FF4E041F5
:1004C000C160704782B0FFF757FFFFF7C9FF00F028
:1004D000A1F800F08FF840F61040C4F2010020218E
:1004E0000160FFF79BFF0020009000F07DF80027DF
:1004F0000546C4F240074FF0000B4FF0000A4FF0E2
:10050000000800BF01A800F09BF828B101984FF047
:10051000000B00900AE000BF0098394600F0FCFA9A
:100520000BF1010BBBF5C87F019059D8DDF80490A1
:100530004DF20A74C3F6A3344846214600F0ECFAA3
:100540000146404600F0D6F80021C4F2C83180468A
:1005500000F040F9002100281CBF40F20008C4F25E
:10056000C8384046CCF2C83100F049F90028484666
:1005700051461CBF40F20008CCF2C83800F098FB8E
:10058000214600F04FF944F200013E460746484636
:10059000C4F29A4100F0C0FA044640464FF084414C
:1005A00000F0BAFA0146204600F0A4F804463846A6
:1005B0003146374600F0B0FA214600F09BF800F0D3
:1005C00027FA00F59672C0F596711046FFF732FFD4
:1005D000053500BF00F008F8401BFBD4CA4691E780
:1005E00000F008F8FEE7000040F26000C2F20000F0
:1005F0000068704740F23440C4F2000000210160FE
:10060000416040F610400021C4F20100C0F60341F1
:100610000160704740F20040C4F20000472181624F
:100620004FF47A71C16246F668018161112101625D
:100630000021416381630121416181210160704793
:1006400070B504464FF4805000F030F8054600289D
:100650004FF4005018BF0125AE0000F027F8023615
:1006600000284FF4804008BFAE0000F01FF80028BB
:1006700018BF0136711E06294FF0000088BF70BDFB
:10068000DFE801F004100E07100A10004FF0804060
:1006900008E04FF0404005E00020CBF6807001E01C
:1006A0004FF07E502060012070BD000040F60841F0
:1006B000C4F2010109680840B0FA80F040097047AF
:1006C000F0B581B0064640F61047184614460D4670
:1006D000C4F20107FFF740FE002803D446EA0541B3
:1006E000396003E045EA064140423960206001B0CC
:1006F000F0BD000090EA010F48BF81F0004100F119
:10070000DE82421A3CBF801A89184FEAD052A2EB0F
:10071000D1534FF07F4C1CEA410F18BF9CEA026F87
:1007200000F03B804FF0004C4CEA00204CEA0121E5
:1007300021FA03FC10EB0C0C1ED202F1FF325FEA2F
:100740001C2040EBC25038BF70471CF07F0F4FEAAF
:10075000400C18BFBCF17F4F38BF7047C3F1200376
:10076000994008BF20F00100BCF17F4F38BF7047AF
:10077000A0F1C04000F097BA4FEA3C00000A40EBFD
:10078000C25028BF1CF0FF0F4FEA400CE6D018BF44
:10079000BCF17F4F38BF7047EAE79CEA026F05D093
:1007A00010EA5C0F08BF00F00040704710B500F081
:1007B00034FA00BF64FBBE3E10B500F0F5F80CBF84
:1007C0000120002010BD10B500F0EEF814BF01208C
:1007D000002010BD10B500F037F98CBF01200020BB
:1007E00010BD10B500F030F92CBF0120002010BD65
:1007F00010B500F05DF994BF0120002010BD10B5C8
:1008000000F056F934BF0120002010BD401058BF41
:10081000C0F14040491058BFC1F140418142EFF35F
:10082000008070474FF47F0C1CEAD0121EBF1CEAF8
:10083000D11392EA0C0F93EA0C0F00F0858090EA36
:10084000010F48BF42F4807240F4000C41F40000F4
:100850002CF07F4120F07F4000B5A2EB03028142E3
:100860000FF2081CACEB504E9EF800E0C0F1000007
:100870004FEA4E0E00FB0EFC38BF49004FEA2C1C1D
:100880000CFB0EF34FEACE1E0EEB635E4FEA112C0B
:100890000EFB0CFC4FEAC1214FEA1C5300FB031175
:1008A00002F5FA024FEA112C0EFB0CFC4FEA013163
:1008B0004FEADC4C00FB0C1142EB2242C14228BF44
:1008C00009184CEB03335DF804EB10EB410143EBEB
:1008D000C250B2F57C0F38BF704729D512F0F00F27
:1008E0001CBF00F1C04000F00040704700818283CF
:1008F0008485868788898B8C8D8E8F91929395962F
:1009000097999A9C9D9FA0A2A3A5A7A8AAACAEB0B8
:10091000B2B3B5B7B9BCBEC0C2C5C7C9CCCED1D4BD
:10092000D7D9DCDFE2E6E9ECF0F3F7FAFE000000ED
:100930004FEA400C0CF1807CBCF17E4F28BF704721
:10094000B0F1C04000F0AFB90CEAD11390EA010F4A
:1009500048BF42F48072624538BF634507D213F442
:100960007F0F16D080EA010000F00040704710B5FC
:1009700000F053F9097EFC3E00F005B880EA010062
:1009800000F00040704780EA010000F0004000F0F5
:100990008AB912F47F0F04BF0248704780EA010051
:1009A00000F081B90000C07F50EA010C00F1138013
:1009B0001CF5000F58BFBCF5000F01D488427047EA
:1009C00007D710F5000F58BF11F5000F15D4884256
:1009D0007047894270471CF5000F04D5BCF5000F25
:1009E000F7D5814270474FF0807C1CEB400F38BF39
:1009F0001CEB410F01D28142704710B500F00DF998
:100A0000922449004FF000504FF08051FFF7FEBE96
:100A100041000B0ED3F19E0208D950F400034FEAB7
:100A2000032323FA02F048BF4042704710B500F09C
:100A3000F4F800BF49922480002070476FF0004214
:100A400082EA20007047000050EA010C00F1138098
:100A50001CF5000F58BFBCF5000F01D48842704749
:100A600007D710F5000F58BF11F5000F15D48842B5
:100A70007047894270471CF5000F04D5BCF5000F84
:100A8000F7D5814270474FF0807C1CEB400F38BF98
:100A90001CEB410F01D28142704710B500F0BDF848
:100AA000922449004FF080504FF00051FFF7AEBE46
:100AB00050EA010C00F113801CF5000F58BFBCF583
:100AC000000F01D48842704707D710F5000F58BFB8
:100AD00011F5000F15D488427047894270471CF504
:100AE000000F04D5BCF5000FF7D5814270474FF0D9
:100AF000807C1CEB400F38BF1CEB410F01D28142C0
:100B0000704710B500F089F8922449004FF000506A
:100B10004FF08051FFF77ABE4FF47F0C1CEAD012E1
:100B20001EBF1CEAD11392EA0C0F93EA0C0F00F0DF
:100B3000478090EA010F48BF42F480724FF0004CAA
:100B40004CEA00204CEA012102EB0302A0FB011356
:100B5000A2F50002002918BF43F001035B0028BF83
:100B60004FEA330342EB22425FEA132C4CEBC250B4
:100B70002EBFBCEB436FB2F57C0F70474FEA036C9E
:100B8000BCF1004F08BF20F00100B2F57C0F38BF68
:100B900070470BD582F0FF0212F5803FC8BF704747
:100BA00000F1C040D8BF00F00040704700F5000CD5
:100BB0005FEA4C0C48BF7047B0F1C04000F073B81A
:100BC0000CEAD11390EA010F48BF42F480726245EB
:100BD00038BF634504D280EA010000F0004070474E
:100BE00010B500F01AF800BF8900013E00F007B808
:100BF00000F009B85FEA410C5FEA1C6C08D080EA9B
:100C0000010000F050B85FEA400C5FEA1C6CF6D1BE
:100C10004FF00040A0F5800070470EF1020E2EF05C
:100C2000030E5EF8044B244204D44FEA4102B2F1B1
:100C30007F4F11D84FEA4003B3F17F4F0CD80ED14C
:100C40004FEAD07C0CEB4C0C0CF1020CB2F17F4F54
:100C500008BF4CEBD17C04E04FF0080C01E04FEAF8
:100C6000D17C0CEB4C0324FA03F404F00704B4F138
:100C7000040C06D20EEB840CBDE810404CF0010CC5
:100C80006047DFE80CF0070802024FF00040A0F5D3
:100C9000800010BD0846420018BFD2F1807288BFA4
:100CA00000F0004010BDFF2141EAD050C005704760
:100CB00090EA010F48BF81F000413FF522AD421A92
:100CC00004D882F00042A0EB020011444FEAD05257
:100CD000A2EBD1534FF07F4C1CEA410F18BF9CEAA6
:100CE000026F4AD04FF0004C4CEA00204CEA012140
:100CF00021FA03FCB0EB0C0C0FD412F0FE0F36D02F
:100D00005FEA4C001DD5001240EBC25038BF70475F
:100D10001CF03F0F18BF70470BE05FEA1C20A2F1E8
:100D2000010240EBC25038BF70471CF07F0F18BF64
:100D30007047C3F12003994014BF401E20F001000A
:100D400070474FEA1223800808BF7047B0FA80FC52
:100D5000A2EB0C02CCF1280C60FA0CF093EA122FF3
:100D600004BF00EBC25070474FEAC3707047130ACC
:100D70005FEADC1008BF7047F6E79CEA026F04D018
:100D800010EA5C0F08BF0020704710B5FFF745FF61
:100D900040DFF63E81F0004070470000AC0D0008D7
:0C0DA00000000020680600002801000888
:04000005080000ED02
:00000001FF
